{
  "contractName": "Escrow",
  "abi": [
    {
      "inputs": [
        {
          "internalType": "address payable",
          "name": "_payer",
          "type": "address"
        },
        {
          "internalType": "address payable",
          "name": "_payee",
          "type": "address"
        },
        {
          "internalType": "address payable",
          "name": "_arbitrator",
          "type": "address"
        }
      ],
      "stateMutability": "nonpayable",
      "type": "constructor"
    },
    {
      "inputs": [],
      "name": "arbitrator",
      "outputs": [
        {
          "internalType": "address payable",
          "name": "",
          "type": "address"
        }
      ],
      "stateMutability": "view",
      "type": "function"
    },
    {
      "inputs": [],
      "name": "currState",
      "outputs": [
        {
          "internalType": "enum Escrow.State",
          "name": "",
          "type": "uint8"
        }
      ],
      "stateMutability": "view",
      "type": "function"
    },
    {
      "inputs": [],
      "name": "expiryTime",
      "outputs": [
        {
          "internalType": "uint256",
          "name": "",
          "type": "uint256"
        }
      ],
      "stateMutability": "view",
      "type": "function"
    },
    {
      "inputs": [],
      "name": "payee",
      "outputs": [
        {
          "internalType": "address payable",
          "name": "",
          "type": "address"
        }
      ],
      "stateMutability": "view",
      "type": "function"
    },
    {
      "inputs": [],
      "name": "payeeProposedExtendedExpiry",
      "outputs": [
        {
          "internalType": "uint256",
          "name": "",
          "type": "uint256"
        }
      ],
      "stateMutability": "view",
      "type": "function"
    },
    {
      "inputs": [],
      "name": "payer",
      "outputs": [
        {
          "internalType": "address payable",
          "name": "",
          "type": "address"
        }
      ],
      "stateMutability": "view",
      "type": "function"
    },
    {
      "inputs": [],
      "name": "payerProposedExtendedExpiry",
      "outputs": [
        {
          "internalType": "uint256",
          "name": "",
          "type": "uint256"
        }
      ],
      "stateMutability": "view",
      "type": "function"
    },
    {
      "inputs": [
        {
          "internalType": "uint256",
          "name": "_expiryTime",
          "type": "uint256"
        }
      ],
      "name": "offer",
      "outputs": [],
      "stateMutability": "payable",
      "type": "function"
    },
    {
      "inputs": [],
      "name": "withdrawOffer",
      "outputs": [],
      "stateMutability": "payable",
      "type": "function"
    },
    {
      "inputs": [],
      "name": "accept",
      "outputs": [],
      "stateMutability": "nonpayable",
      "type": "function"
    },
    {
      "inputs": [
        {
          "internalType": "uint256",
          "name": "extendedExpiryTime",
          "type": "uint256"
        }
      ],
      "name": "proposeExtendExpiry",
      "outputs": [
        {
          "internalType": "string",
          "name": "",
          "type": "string"
        }
      ],
      "stateMutability": "nonpayable",
      "type": "function"
    },
    {
      "inputs": [],
      "name": "confirmPerformance",
      "outputs": [],
      "stateMutability": "nonpayable",
      "type": "function"
    },
    {
      "inputs": [],
      "name": "expiredWithdraw",
      "outputs": [],
      "stateMutability": "nonpayable",
      "type": "function"
    },
    {
      "inputs": [],
      "name": "triggerDispute",
      "outputs": [],
      "stateMutability": "nonpayable",
      "type": "function"
    },
    {
      "inputs": [],
      "name": "getCurrState",
      "outputs": [
        {
          "internalType": "int256",
          "name": "_val",
          "type": "int256"
        }
      ],
      "stateMutability": "view",
      "type": "function"
    }
  ],
  "bytecode": "0x60806040523480156200001157600080fd5b5060405162001d4f38038062001d4f83398181016040528101906200003791906200019a565b826000806101000a81548173ffffffffffffffffffffffffffffffffffffffff021916908373ffffffffffffffffffffffffffffffffffffffff16021790555081600160006101000a81548173ffffffffffffffffffffffffffffffffffffffff021916908373ffffffffffffffffffffffffffffffffffffffff16021790555080600360006101000a81548173ffffffffffffffffffffffffffffffffffffffff021916908373ffffffffffffffffffffffffffffffffffffffff1602179055506000600360146101000a81548160ff02191690836003811115620001225762000121620001f6565b5b021790555050505062000225565b600080fd5b600073ffffffffffffffffffffffffffffffffffffffff82169050919050565b6000620001628262000135565b9050919050565b620001748162000155565b81146200018057600080fd5b50565b600081519050620001948162000169565b92915050565b600080600060608486031215620001b657620001b562000130565b5b6000620001c68682870162000183565b9350506020620001d98682870162000183565b9250506040620001ec8682870162000183565b9150509250925092565b7f4e487b7100000000000000000000000000000000000000000000000000000000600052602160045260246000fd5b611b1a80620002356000396000f3fe6080604052600436106100e85760003560e01c80636cc6cde11161008a578063aa352ca411610059578063aa352ca414610267578063ae90b21314610271578063aeb6d3231461029c578063afe01043146102d9576100e8565b80636cc6cde1146101de578063761610fc1461020957806399bc0aea14610225578063a35c2bff14610250576100e8565b80632814de94116100c65780632814de941461015a5780632852b71c1461018557806345cb15591461019c57806352f91acf146101c7576100e8565b8063123119cd146100ed5780631eaa1c8b14610118578063276aaab61461012f575b600080fd5b3480156100f957600080fd5b50610102610304565b60405161010f919061114c565b60405180910390f35b34801561012457600080fd5b5061012d610328565b005b34801561013b57600080fd5b50610144610508565b6040516101519190611180565b60405180910390f35b34801561016657600080fd5b5061016f61061c565b60405161017c91906111b4565b60405180910390f35b34801561019157600080fd5b5061019a610622565b005b3480156101a857600080fd5b506101b1610755565b6040516101be91906111b4565b60405180910390f35b3480156101d357600080fd5b506101dc61075b565b005b3480156101ea57600080fd5b506101f361094c565b604051610200919061114c565b60405180910390f35b610223600480360381019061021e9190611200565b610972565b005b34801561023157600080fd5b5061023a610b29565b60405161024791906111b4565b60405180910390f35b34801561025c57600080fd5b50610265610b2f565b005b61026f610cc8565b005b34801561027d57600080fd5b50610286610e60565b604051610293919061114c565b60405180910390f35b3480156102a857600080fd5b506102c360048036038101906102be9190611200565b610e86565b6040516102d091906112c6565b60405180910390f35b3480156102e557600080fd5b506102ee611097565b6040516102fb919061135f565b60405180910390f35b60008054906101000a900473ffffffffffffffffffffffffffffffffffffffff1681565b600160009054906101000a900473ffffffffffffffffffffffffffffffffffffffff1673ffffffffffffffffffffffffffffffffffffffff163373ffffffffffffffffffffffffffffffffffffffff16146103b8576040517f08c379a00000000000000000000000000000000000000000000000000000000081526004016103af906113c6565b60405180910390fd5b600260038111156103cc576103cb6112e8565b5b600360149054906101000a900460ff1660038111156103ee576103ed6112e8565b5b1461042e576040517f08c379a000000000000000000000000000000000000000000000000000000000815260040161042590611458565b60405180910390fd5b600254421015610473576040517f08c379a000000000000000000000000000000000000000000000000000000000815260040161046a906114ea565b60405180910390fd5b600160009054906101000a900473ffffffffffffffffffffffffffffffffffffffff1673ffffffffffffffffffffffffffffffffffffffff166108fc479081150290604051600060405180830381858888f193505050501580156104db573d6000803e3d6000fd5b5060038060146101000a81548160ff02191690836003811115610501576105006112e8565b5b0217905550565b600080600381111561051d5761051c6112e8565b5b600360149054906101000a900460ff16600381111561053f5761053e6112e8565b5b0361054d5760019050610619565b60016003811115610561576105606112e8565b5b600360149054906101000a900460ff166003811115610583576105826112e8565b5b036105915760029050610619565b600260038111156105a5576105a46112e8565b5b600360149054906101000a900460ff1660038111156105c7576105c66112e8565b5b036105d55760039050610619565b6003808111156105e8576105e76112e8565b5b600360149054906101000a900460ff16600381111561060a576106096112e8565b5b036106185760049050610619565b5b90565b60045481565b600160009054906101000a900473ffffffffffffffffffffffffffffffffffffffff1673ffffffffffffffffffffffffffffffffffffffff163373ffffffffffffffffffffffffffffffffffffffff16146106b2576040517f08c379a00000000000000000000000000000000000000000000000000000000081526004016106a9906113c6565b60405180910390fd5b600160038111156106c6576106c56112e8565b5b600360149054906101000a900460ff1660038111156106e8576106e76112e8565b5b14610728576040517f08c379a000000000000000000000000000000000000000000000000000000000815260040161071f90611556565b60405180910390fd5b6002600360146101000a81548160ff0219169083600381111561074e5761074d6112e8565b5b0217905550565b60055481565b600160009054906101000a900473ffffffffffffffffffffffffffffffffffffffff1673ffffffffffffffffffffffffffffffffffffffff163373ffffffffffffffffffffffffffffffffffffffff161480610802575060008054906101000a900473ffffffffffffffffffffffffffffffffffffffff1673ffffffffffffffffffffffffffffffffffffffff163373ffffffffffffffffffffffffffffffffffffffff16145b610841576040517f08c379a0000000000000000000000000000000000000000000000000000000008152600401610838906115e8565b60405180910390fd5b60026003811115610855576108546112e8565b5b600360149054906101000a900460ff166003811115610877576108766112e8565b5b146108b7576040517f08c379a00000000000000000000000000000000000000000000000000000000081526004016108ae906116a0565b60405180910390fd5b600360009054906101000a900473ffffffffffffffffffffffffffffffffffffffff1673ffffffffffffffffffffffffffffffffffffffff166108fc479081150290604051600060405180830381858888f1935050505015801561091f573d6000803e3d6000fd5b5060038060146101000a81548160ff02191690836003811115610945576109446112e8565b5b0217905550565b600360009054906101000a900473ffffffffffffffffffffffffffffffffffffffff1681565b60008054906101000a900473ffffffffffffffffffffffffffffffffffffffff1673ffffffffffffffffffffffffffffffffffffffff163373ffffffffffffffffffffffffffffffffffffffff1614610a00576040517f08c379a00000000000000000000000000000000000000000000000000000000081526004016109f79061170c565b60405180910390fd5b60006003811115610a1457610a136112e8565b5b600360149054906101000a900460ff166003811115610a3657610a356112e8565b5b14610a76576040517f08c379a0000000000000000000000000000000000000000000000000000000008152600401610a6d90611778565b60405180910390fd5b60003411610ab9576040517f08c379a0000000000000000000000000000000000000000000000000000000008152600401610ab0906117e4565b60405180910390fd5b428111610afb576040517f08c379a0000000000000000000000000000000000000000000000000000000008152600401610af290611850565b60405180910390fd5b6001600360146101000a81548160ff02191690836003811115610b2157610b206112e8565b5b021790555050565b60025481565b60008054906101000a900473ffffffffffffffffffffffffffffffffffffffff1673ffffffffffffffffffffffffffffffffffffffff163373ffffffffffffffffffffffffffffffffffffffff1614610bbd576040517f08c379a0000000000000000000000000000000000000000000000000000000008152600401610bb49061170c565b60405180910390fd5b60026003811115610bd157610bd06112e8565b5b600360149054906101000a900460ff166003811115610bf357610bf26112e8565b5b14610c33576040517f08c379a0000000000000000000000000000000000000000000000000000000008152600401610c2a90611458565b60405180910390fd5b600160009054906101000a900473ffffffffffffffffffffffffffffffffffffffff1673ffffffffffffffffffffffffffffffffffffffff166108fc479081150290604051600060405180830381858888f19350505050158015610c9b573d6000803e3d6000fd5b5060038060146101000a81548160ff02191690836003811115610cc157610cc06112e8565b5b0217905550565b60008054906101000a900473ffffffffffffffffffffffffffffffffffffffff1673ffffffffffffffffffffffffffffffffffffffff163373ffffffffffffffffffffffffffffffffffffffff1614610d56576040517f08c379a0000000000000000000000000000000000000000000000000000000008152600401610d4d9061170c565b60405180910390fd5b60016003811115610d6a57610d696112e8565b5b600360149054906101000a900460ff166003811115610d8c57610d8b6112e8565b5b03610dcc576040517f08c379a0000000000000000000000000000000000000000000000000000000008152600401610dc3906118e2565b60405180910390fd5b60008054906101000a900473ffffffffffffffffffffffffffffffffffffffff1673ffffffffffffffffffffffffffffffffffffffff166108fc479081150290604051600060405180830381858888f19350505050158015610e32573d6000803e3d6000fd5b506000600360146101000a81548160ff02191690836003811115610e5957610e586112e8565b5b0217905550565b600160009054906101000a900473ffffffffffffffffffffffffffffffffffffffff1681565b6060600160009054906101000a900473ffffffffffffffffffffffffffffffffffffffff1673ffffffffffffffffffffffffffffffffffffffff163373ffffffffffffffffffffffffffffffffffffffff161480610f2f575060008054906101000a900473ffffffffffffffffffffffffffffffffffffffff1673ffffffffffffffffffffffffffffffffffffffff163373ffffffffffffffffffffffffffffffffffffffff16145b610f6e576040517f08c379a0000000000000000000000000000000000000000000000000000000008152600401610f65906115e8565b60405180910390fd5b6002548211610fb2576040517f08c379a0000000000000000000000000000000000000000000000000000000008152600401610fa990611974565b60405180910390fd5b60008054906101000a900473ffffffffffffffffffffffffffffffffffffffff1673ffffffffffffffffffffffffffffffffffffffff163373ffffffffffffffffffffffffffffffffffffffff16036110115781600581905550611019565b816004819055505b6000600554148061102c57506000600454145b15611051576040518060800160405280604c8152602001611a99604c91399050611092565b6110596110aa565b6040518060400160405280601381526020017f4578706972792074696d6520757064617465640000000000000000000000000081525090505b919050565b600360149054906101000a900460ff1681565b600554600454146110f0576040517f08c379a00000000000000000000000000000000000000000000000000000000081526004016110e790611a78565b60405180910390fd5b60055460028190555060006004819055506000600581905550565b600073ffffffffffffffffffffffffffffffffffffffff82169050919050565b60006111368261110b565b9050919050565b6111468161112b565b82525050565b6000602082019050611161600083018461113d565b92915050565b6000819050919050565b61117a81611167565b82525050565b60006020820190506111956000830184611171565b92915050565b6000819050919050565b6111ae8161119b565b82525050565b60006020820190506111c960008301846111a5565b92915050565b600080fd5b6111dd8161119b565b81146111e857600080fd5b50565b6000813590506111fa816111d4565b92915050565b600060208284031215611216576112156111cf565b5b6000611224848285016111eb565b91505092915050565b600081519050919050565b600082825260208201905092915050565b60005b8381101561126757808201518184015260208101905061124c565b83811115611276576000848401525b50505050565b6000601f19601f8301169050919050565b60006112988261122d565b6112a28185611238565b93506112b2818560208601611249565b6112bb8161127c565b840191505092915050565b600060208201905081810360008301526112e0818461128d565b905092915050565b7f4e487b7100000000000000000000000000000000000000000000000000000000600052602160045260246000fd5b60048110611328576113276112e8565b5b50565b600081905061133982611317565b919050565b60006113498261132b565b9050919050565b6113598161133e565b82525050565b60006020820190506113746000830184611350565b92915050565b7f4f6e6c792070617965652063616e2063616c6c2074686973206d6574686f6400600082015250565b60006113b0601f83611238565b91506113bb8261137a565b602082019050919050565b600060208201905081810360008301526113df816113a3565b9050919050565b7f436f6e7472616374206973206e6f7420696e2074686520706572666f726d616e60008201527f6365207374616765000000000000000000000000000000000000000000000000602082015250565b6000611442602883611238565b915061144d826113e6565b604082019050919050565b6000602082019050818103600083015261147181611435565b9050919050565b7f436f6e747261637420686173206e6f742072656163686564207468652065787060008201527f6972792074696d65000000000000000000000000000000000000000000000000602082015250565b60006114d4602883611238565b91506114df82611478565b604082019050919050565b60006020820190508181036000830152611503816114c7565b9050919050565b7f556e61626c6520746f2061636365707420636f6e747261637400000000000000600082015250565b6000611540601983611238565b915061154b8261150a565b602082019050919050565b6000602082019050818103600083015261156f81611533565b9050919050565b7f4f6e6c79207468652072656769737465726564207061796565206f722070617960008201527f65722063616e2063616c6c2074686973206d6574686f64000000000000000000602082015250565b60006115d2603783611238565b91506115dd82611576565b604082019050919050565b60006020820190508181036000830152611601816115c5565b9050919050565b7f436f6e7472616374206d75737420626520696e2074686520706572666f726d6160008201527f6e636520737461676520666f722064697370757465206d656368616e69736d2060208201527f746f20626520617661696c61626c650000000000000000000000000000000000604082015250565b600061168a604f83611238565b915061169582611608565b606082019050919050565b600060208201905081810360008301526116b98161167d565b9050919050565b7f4f6e6c792070617965722063616e2063616c6c2074686973206d6574686f6400600082015250565b60006116f6601f83611238565b9150611701826116c0565b602082019050919050565b60006020820190508181036000830152611725816116e9565b9050919050565b7f436f6e7472616374206e6f7420616363657074696e67206f6666657200000000600082015250565b6000611762601c83611238565b915061176d8261172c565b602082019050919050565b6000602082019050818103600083015261179181611755565b9050919050565b7f506c65617365206465706f7369742061206e6f6e2d7a65726f20616d6f756e74600082015250565b60006117ce602083611238565b91506117d982611798565b602082019050919050565b600060208201905081810360008301526117fd816117c1565b9050919050565b7f65787069727954696d65206d7573742062652061206675747572652074696d65600082015250565b600061183a602083611238565b915061184582611804565b602082019050919050565b600060208201905081810360008301526118698161182d565b9050919050565b7f43616e6e6f74207769746864726177206f66666572206173207061796565206860008201527f617320616363657074656420796f7572206465706f7369740000000000000000602082015250565b60006118cc603883611238565b91506118d782611870565b604082019050919050565b600060208201905081810360008301526118fb816118bf565b9050919050565b7f50726f706f736564206578706972792074696d65206d7573742062652061667460008201527f65722063757272656e74206578706972792074696d6500000000000000000000602082015250565b600061195e603683611238565b915061196982611902565b604082019050919050565b6000602082019050818103600083015261198d81611951565b9050919050565b7f4578706972792074696d65206e6f7420657874656e6465643a2050617965722060008201527f616e642070617965652070726f706f73656420657874656e646564206578706960208201527f7279206d757374206d617463682028596f75206d617920636865636b2070617960408201527f656550726f706f736564457874656e646564457870697279206f72207061796560608201527f7250726f706f736564457874656e646564457870697279290000000000000000608082015250565b6000611a62609883611238565b9150611a6d82611994565b60a082019050919050565b60006020820190508181036000830152611a9181611a55565b905091905056fe4e6577206578706972792074696d652070726f706f7365643a20506c65617365207761697420666f72206f7468657220706172747920746f2070726f706f7365206578706972792074696d65a26469706673582212205476daf71c6fdf2a14261f1645b2af476e82d154104ebcb2ad8c8971ad60ccac64736f6c634300080d0033",
  "immutableReferences": {},
  "source": "// SPDX-License-Identifier: UNLICENSED\npragma solidity ^0.8.0;\n\ncontract Escrow {\n\taddress payable public payer;\n\taddress payable public payee;\n\tuint public expiryTime;\n\n\taddress payable public arbitrator;\n\n\tenum State { A_OFFER, A_ACCEPTANCE, A_PERFORMANCE, COMPLETE}\n\tState public currState;\n\n\tuint public payeeProposedExtendedExpiry;\n\tuint public payerProposedExtendedExpiry;\n\n\tmodifier onlyPayer() {\n\t\trequire(msg.sender == payer, \"Only payer can call this method\");\n\t\t_;\n\t}\n\n\tmodifier onlyPayee() {\n\t\trequire(msg.sender == payee, \"Only payee can call this method\");\n\t\t_;\n\t}\n\n\tmodifier onlyPayerOrPayee() {\n\t\trequire(msg.sender == payee || msg.sender == payer, \"Only the registered payee or payer can call this method\");\n\t\t_;\n\t}\n\n\tconstructor(address payable _payer, address payable _payee, address payable _arbitrator) {\n\t\tpayer = _payer;\n\t\tpayee = _payee;\n\t\tarbitrator = _arbitrator;\n\t\tcurrState = State.A_OFFER;\n\t}\n\n\tfunction extendExpiry() internal {\n\t\trequire(payeeProposedExtendedExpiry == payerProposedExtendedExpiry, \n\t\t\t\"Expiry time not extended: Payer and payee proposed extended expiry must match (You may check payeeProposedExtendedExpiry or payerProposedExtendedExpiry)\");\n\t\texpiryTime = payerProposedExtendedExpiry;\n\t\tpayeeProposedExtendedExpiry = 0;\n\t\tpayerProposedExtendedExpiry = 0;\n\t}\n\n\t// Function for payer to deposit into the contract\n\tfunction offer(uint _expiryTime) onlyPayer external payable {\n\t\trequire(currState == State.A_OFFER, \"Contract not accepting offer\");\n\t\trequire(msg.value > 0, \"Please deposit a non-zero amount\");\n\t\trequire(_expiryTime > block.timestamp, \"expiryTime must be a future time\");\n\t\t// Payee will now be allowed to accept payer's offer of deposit\n\t\tcurrState = State.A_ACCEPTANCE;\n\t}\n\n\t// Function to allow payer to withdraw offer / alter offer by withdrawing and re-offering\n\tfunction withdrawOffer() onlyPayer external payable {\n\t\trequire(currState != State.A_ACCEPTANCE, \"Cannot withdraw offer as payee has accepted your deposit\");\n\t\tpayer.transfer(address(this).balance);\n\t\t// Contract now able to accept a new offer\n\t\tcurrState = State.A_OFFER;\n\t}\n\n\t// Function for payee to accept deposit and 'lock' the escrow contract\n\tfunction accept() onlyPayee external {\n\t\trequire(currState == State.A_ACCEPTANCE, \"Unable to accept contract\");\n\t\t// Contract is now \"locked\" for performance\n\t\tcurrState = State.A_PERFORMANCE;\n\t}\n\n\t// Function to allow parties to extend expiry time. Both payee and payer must propose matching expiry time\n\t// for expiry time to be actually updated.\n\tfunction proposeExtendExpiry(uint extendedExpiryTime) onlyPayerOrPayee external returns (string memory) {\n\t\trequire(extendedExpiryTime > expiryTime, \"Proposed expiry time must be after current expiry time\");\n\t\tif (msg.sender == payer) {\n\t\t\tpayerProposedExtendedExpiry = extendedExpiryTime;\n\t\t} else {\n\t\t\tpayeeProposedExtendedExpiry = extendedExpiryTime;\n\t\t}\n\t\tif (payerProposedExtendedExpiry == 0 || payeeProposedExtendedExpiry == 0) {\n\t\t\t// Other party has not proposed extended expiry time\n\t\t\treturn \"New expiry time proposed: Please wait for other party to propose expiry time\";\n\t\t}\n\t\textendExpiry();\n\t\treturn \"Expiry time updated\";\n\t}\n\n\t// Function for payer to confirm performance, releasing balance to payee\n\tfunction confirmPerformance() onlyPayer external {\n\t\trequire(currState == State.A_PERFORMANCE, \"Contract is not in the performance stage\");\n\t\tpayee.transfer(address(this).balance);\n\t\tcurrState = State.COMPLETE;\n\t}\n\n\t// Function for payee to withdraw the balance if payer does not confirm performance before timer expires\n\tfunction expiredWithdraw() onlyPayee external {\n\t\trequire(currState == State.A_PERFORMANCE, \"Contract is not in the performance stage\");\n\t\trequire(block.timestamp >= expiryTime, \"Contract has not reached the expiry time\");\n\t\tpayee.transfer(address(this).balance);\n\t\tcurrState = State.COMPLETE;\n\t}\n\n\t// Function for either payer or payee to trigger dispute mechanism. Balance held will be transferred to chosen arbitrator.\n\tfunction triggerDispute() onlyPayerOrPayee external {\n\t\trequire(currState == State.A_PERFORMANCE, \"Contract must be in the performance stage for dispute mechanism to be available\");\n\t\tarbitrator.transfer(address(this).balance);\n\t\tcurrState = State.COMPLETE;\n\t}\n\n\t// Function to check current state\n\tfunction getCurrState() view external returns (int _val) {\n\t\tif (currState == State.A_OFFER) return 1;\n\t\tif (currState == State.A_ACCEPTANCE) return 2;\n\t\tif (currState == State.A_PERFORMANCE) return 3;\n\t\tif (currState == State.COMPLETE) return 4;\n\t}\n}",
  "sourcePath": "/home/dominiclet/projects/Escrow/smart-contract/contracts/Escrow.sol",
  "compiler": {
    "name": "solc",
    "version": "0.8.13+commit.abaa5c0e.Emscripten.clang"
  },
  "schemaVersion": "3.4.6",
  "updatedAt": "2022-03-28T14:09:14.072Z",
  "devdoc": {
    "kind": "dev",
    "methods": {},
    "version": 1
  },
  "userdoc": {
    "kind": "user",
    "methods": {},
    "version": 1
  }
}