{
  "contractName": "Escrow",
  "abi": [
    {
      "inputs": [
        {
          "internalType": "address payable",
          "name": "_payer",
          "type": "address"
        },
        {
          "internalType": "address payable",
          "name": "_payee",
          "type": "address"
        },
        {
          "internalType": "address payable",
          "name": "_arbitrator",
          "type": "address"
        }
      ],
      "stateMutability": "nonpayable",
      "type": "constructor"
    },
    {
      "inputs": [],
      "name": "arbitrator",
      "outputs": [
        {
          "internalType": "address payable",
          "name": "",
          "type": "address"
        }
      ],
      "stateMutability": "view",
      "type": "function"
    },
    {
      "inputs": [],
      "name": "currState",
      "outputs": [
        {
          "internalType": "enum Escrow.State",
          "name": "",
          "type": "uint8"
        }
      ],
      "stateMutability": "view",
      "type": "function"
    },
    {
      "inputs": [],
      "name": "expiryTime",
      "outputs": [
        {
          "internalType": "uint256",
          "name": "",
          "type": "uint256"
        }
      ],
      "stateMutability": "view",
      "type": "function"
    },
    {
      "inputs": [],
      "name": "payee",
      "outputs": [
        {
          "internalType": "address payable",
          "name": "",
          "type": "address"
        }
      ],
      "stateMutability": "view",
      "type": "function"
    },
    {
      "inputs": [],
      "name": "payeeProposedExtendedExpiry",
      "outputs": [
        {
          "internalType": "uint256",
          "name": "",
          "type": "uint256"
        }
      ],
      "stateMutability": "view",
      "type": "function"
    },
    {
      "inputs": [],
      "name": "payer",
      "outputs": [
        {
          "internalType": "address payable",
          "name": "",
          "type": "address"
        }
      ],
      "stateMutability": "view",
      "type": "function"
    },
    {
      "inputs": [],
      "name": "payerProposedExtendedExpiry",
      "outputs": [
        {
          "internalType": "uint256",
          "name": "",
          "type": "uint256"
        }
      ],
      "stateMutability": "view",
      "type": "function"
    },
    {
      "inputs": [
        {
          "internalType": "uint256",
          "name": "_expiryTime",
          "type": "uint256"
        }
      ],
      "name": "offer",
      "outputs": [],
      "stateMutability": "payable",
      "type": "function"
    },
    {
      "inputs": [],
      "name": "withdrawOffer",
      "outputs": [],
      "stateMutability": "payable",
      "type": "function"
    },
    {
      "inputs": [],
      "name": "accept",
      "outputs": [],
      "stateMutability": "nonpayable",
      "type": "function"
    },
    {
      "inputs": [
        {
          "internalType": "uint256",
          "name": "extendedExpiryTime",
          "type": "uint256"
        }
      ],
      "name": "proposeExtendExpiry",
      "outputs": [
        {
          "internalType": "string",
          "name": "",
          "type": "string"
        }
      ],
      "stateMutability": "nonpayable",
      "type": "function"
    },
    {
      "inputs": [],
      "name": "confirmPerformance",
      "outputs": [],
      "stateMutability": "nonpayable",
      "type": "function"
    },
    {
      "inputs": [],
      "name": "expiredWithdraw",
      "outputs": [],
      "stateMutability": "nonpayable",
      "type": "function"
    },
    {
      "inputs": [],
      "name": "triggerDispute",
      "outputs": [],
      "stateMutability": "nonpayable",
      "type": "function"
    }
  ],
  "bytecode": "0x60806040523480156200001157600080fd5b5060405162001bd138038062001bd183398181016040528101906200003791906200019a565b826000806101000a81548173ffffffffffffffffffffffffffffffffffffffff021916908373ffffffffffffffffffffffffffffffffffffffff16021790555081600160006101000a81548173ffffffffffffffffffffffffffffffffffffffff021916908373ffffffffffffffffffffffffffffffffffffffff16021790555080600360006101000a81548173ffffffffffffffffffffffffffffffffffffffff021916908373ffffffffffffffffffffffffffffffffffffffff1602179055506000600360146101000a81548160ff02191690836003811115620001225762000121620001f6565b5b021790555050505062000225565b600080fd5b600073ffffffffffffffffffffffffffffffffffffffff82169050919050565b6000620001628262000135565b9050919050565b620001748162000155565b81146200018057600080fd5b50565b600081519050620001948162000169565b92915050565b600080600060608486031215620001b657620001b562000130565b5b6000620001c68682870162000183565b9350506020620001d98682870162000183565b9250506040620001ec8682870162000183565b9150509250925092565b7f4e487b7100000000000000000000000000000000000000000000000000000000600052602160045260246000fd5b61199c80620002356000396000f3fe6080604052600436106100dd5760003560e01c8063761610fc1161007f578063aa352ca411610059578063aa352ca414610231578063ae90b2131461023b578063aeb6d32314610266578063afe01043146102a3576100dd565b8063761610fc146101d357806399bc0aea146101ef578063a35c2bff1461021a576100dd565b80632852b71c116100bb5780632852b71c1461014f57806345cb15591461016657806352f91acf146101915780636cc6cde1146101a8576100dd565b8063123119cd146100e25780631eaa1c8b1461010d5780632814de9414610124575b600080fd5b3480156100ee57600080fd5b506100f76102ce565b6040516101049190611002565b60405180910390f35b34801561011957600080fd5b506101226102f2565b005b34801561013057600080fd5b506101396104d2565b6040516101469190611036565b60405180910390f35b34801561015b57600080fd5b506101646104d8565b005b34801561017257600080fd5b5061017b61060b565b6040516101889190611036565b60405180910390f35b34801561019d57600080fd5b506101a6610611565b005b3480156101b457600080fd5b506101bd610802565b6040516101ca9190611002565b60405180910390f35b6101ed60048036038101906101e89190611082565b610828565b005b3480156101fb57600080fd5b506102046109df565b6040516102119190611036565b60405180910390f35b34801561022657600080fd5b5061022f6109e5565b005b610239610b7e565b005b34801561024757600080fd5b50610250610d16565b60405161025d9190611002565b60405180910390f35b34801561027257600080fd5b5061028d60048036038101906102889190611082565b610d3c565b60405161029a9190611148565b60405180910390f35b3480156102af57600080fd5b506102b8610f4d565b6040516102c591906111e1565b60405180910390f35b60008054906101000a900473ffffffffffffffffffffffffffffffffffffffff1681565b600160009054906101000a900473ffffffffffffffffffffffffffffffffffffffff1673ffffffffffffffffffffffffffffffffffffffff163373ffffffffffffffffffffffffffffffffffffffff1614610382576040517f08c379a000000000000000000000000000000000000000000000000000000000815260040161037990611248565b60405180910390fd5b600260038111156103965761039561116a565b5b600360149054906101000a900460ff1660038111156103b8576103b761116a565b5b146103f8576040517f08c379a00000000000000000000000000000000000000000000000000000000081526004016103ef906112da565b60405180910390fd5b60025442101561043d576040517f08c379a00000000000000000000000000000000000000000000000000000000081526004016104349061136c565b60405180910390fd5b600160009054906101000a900473ffffffffffffffffffffffffffffffffffffffff1673ffffffffffffffffffffffffffffffffffffffff166108fc479081150290604051600060405180830381858888f193505050501580156104a5573d6000803e3d6000fd5b5060038060146101000a81548160ff021916908360038111156104cb576104ca61116a565b5b0217905550565b60045481565b600160009054906101000a900473ffffffffffffffffffffffffffffffffffffffff1673ffffffffffffffffffffffffffffffffffffffff163373ffffffffffffffffffffffffffffffffffffffff1614610568576040517f08c379a000000000000000000000000000000000000000000000000000000000815260040161055f90611248565b60405180910390fd5b6001600381111561057c5761057b61116a565b5b600360149054906101000a900460ff16600381111561059e5761059d61116a565b5b146105de576040517f08c379a00000000000000000000000000000000000000000000000000000000081526004016105d5906113d8565b60405180910390fd5b6002600360146101000a81548160ff021916908360038111156106045761060361116a565b5b0217905550565b60055481565b600160009054906101000a900473ffffffffffffffffffffffffffffffffffffffff1673ffffffffffffffffffffffffffffffffffffffff163373ffffffffffffffffffffffffffffffffffffffff1614806106b8575060008054906101000a900473ffffffffffffffffffffffffffffffffffffffff1673ffffffffffffffffffffffffffffffffffffffff163373ffffffffffffffffffffffffffffffffffffffff16145b6106f7576040517f08c379a00000000000000000000000000000000000000000000000000000000081526004016106ee9061146a565b60405180910390fd5b6002600381111561070b5761070a61116a565b5b600360149054906101000a900460ff16600381111561072d5761072c61116a565b5b1461076d576040517f08c379a000000000000000000000000000000000000000000000000000000000815260040161076490611522565b60405180910390fd5b600360009054906101000a900473ffffffffffffffffffffffffffffffffffffffff1673ffffffffffffffffffffffffffffffffffffffff166108fc479081150290604051600060405180830381858888f193505050501580156107d5573d6000803e3d6000fd5b5060038060146101000a81548160ff021916908360038111156107fb576107fa61116a565b5b0217905550565b600360009054906101000a900473ffffffffffffffffffffffffffffffffffffffff1681565b60008054906101000a900473ffffffffffffffffffffffffffffffffffffffff1673ffffffffffffffffffffffffffffffffffffffff163373ffffffffffffffffffffffffffffffffffffffff16146108b6576040517f08c379a00000000000000000000000000000000000000000000000000000000081526004016108ad9061158e565b60405180910390fd5b600060038111156108ca576108c961116a565b5b600360149054906101000a900460ff1660038111156108ec576108eb61116a565b5b1461092c576040517f08c379a0000000000000000000000000000000000000000000000000000000008152600401610923906115fa565b60405180910390fd5b6000341161096f576040517f08c379a000000000000000000000000000000000000000000000000000000000815260040161096690611666565b60405180910390fd5b4281116109b1576040517f08c379a00000000000000000000000000000000000000000000000000000000081526004016109a8906116d2565b60405180910390fd5b6001600360146101000a81548160ff021916908360038111156109d7576109d661116a565b5b021790555050565b60025481565b60008054906101000a900473ffffffffffffffffffffffffffffffffffffffff1673ffffffffffffffffffffffffffffffffffffffff163373ffffffffffffffffffffffffffffffffffffffff1614610a73576040517f08c379a0000000000000000000000000000000000000000000000000000000008152600401610a6a9061158e565b60405180910390fd5b60026003811115610a8757610a8661116a565b5b600360149054906101000a900460ff166003811115610aa957610aa861116a565b5b14610ae9576040517f08c379a0000000000000000000000000000000000000000000000000000000008152600401610ae0906112da565b60405180910390fd5b600160009054906101000a900473ffffffffffffffffffffffffffffffffffffffff1673ffffffffffffffffffffffffffffffffffffffff166108fc479081150290604051600060405180830381858888f19350505050158015610b51573d6000803e3d6000fd5b5060038060146101000a81548160ff02191690836003811115610b7757610b7661116a565b5b0217905550565b60008054906101000a900473ffffffffffffffffffffffffffffffffffffffff1673ffffffffffffffffffffffffffffffffffffffff163373ffffffffffffffffffffffffffffffffffffffff1614610c0c576040517f08c379a0000000000000000000000000000000000000000000000000000000008152600401610c039061158e565b60405180910390fd5b60016003811115610c2057610c1f61116a565b5b600360149054906101000a900460ff166003811115610c4257610c4161116a565b5b03610c82576040517f08c379a0000000000000000000000000000000000000000000000000000000008152600401610c7990611764565b60405180910390fd5b60008054906101000a900473ffffffffffffffffffffffffffffffffffffffff1673ffffffffffffffffffffffffffffffffffffffff166108fc479081150290604051600060405180830381858888f19350505050158015610ce8573d6000803e3d6000fd5b506000600360146101000a81548160ff02191690836003811115610d0f57610d0e61116a565b5b0217905550565b600160009054906101000a900473ffffffffffffffffffffffffffffffffffffffff1681565b6060600160009054906101000a900473ffffffffffffffffffffffffffffffffffffffff1673ffffffffffffffffffffffffffffffffffffffff163373ffffffffffffffffffffffffffffffffffffffff161480610de5575060008054906101000a900473ffffffffffffffffffffffffffffffffffffffff1673ffffffffffffffffffffffffffffffffffffffff163373ffffffffffffffffffffffffffffffffffffffff16145b610e24576040517f08c379a0000000000000000000000000000000000000000000000000000000008152600401610e1b9061146a565b60405180910390fd5b6002548211610e68576040517f08c379a0000000000000000000000000000000000000000000000000000000008152600401610e5f906117f6565b60405180910390fd5b60008054906101000a900473ffffffffffffffffffffffffffffffffffffffff1673ffffffffffffffffffffffffffffffffffffffff163373ffffffffffffffffffffffffffffffffffffffff1603610ec75781600581905550610ecf565b816004819055505b60006005541480610ee257506000600454145b15610f07576040518060800160405280604c815260200161191b604c91399050610f48565b610f0f610f60565b6040518060400160405280601381526020017f4578706972792074696d6520757064617465640000000000000000000000000081525090505b919050565b600360149054906101000a900460ff1681565b60055460045414610fa6576040517f08c379a0000000000000000000000000000000000000000000000000000000008152600401610f9d906118fa565b60405180910390fd5b60055460028190555060006004819055506000600581905550565b600073ffffffffffffffffffffffffffffffffffffffff82169050919050565b6000610fec82610fc1565b9050919050565b610ffc81610fe1565b82525050565b60006020820190506110176000830184610ff3565b92915050565b6000819050919050565b6110308161101d565b82525050565b600060208201905061104b6000830184611027565b92915050565b600080fd5b61105f8161101d565b811461106a57600080fd5b50565b60008135905061107c81611056565b92915050565b60006020828403121561109857611097611051565b5b60006110a68482850161106d565b91505092915050565b600081519050919050565b600082825260208201905092915050565b60005b838110156110e95780820151818401526020810190506110ce565b838111156110f8576000848401525b50505050565b6000601f19601f8301169050919050565b600061111a826110af565b61112481856110ba565b93506111348185602086016110cb565b61113d816110fe565b840191505092915050565b60006020820190508181036000830152611162818461110f565b905092915050565b7f4e487b7100000000000000000000000000000000000000000000000000000000600052602160045260246000fd5b600481106111aa576111a961116a565b5b50565b60008190506111bb82611199565b919050565b60006111cb826111ad565b9050919050565b6111db816111c0565b82525050565b60006020820190506111f660008301846111d2565b92915050565b7f4f6e6c792070617965652063616e2063616c6c2074686973206d6574686f6400600082015250565b6000611232601f836110ba565b915061123d826111fc565b602082019050919050565b6000602082019050818103600083015261126181611225565b9050919050565b7f436f6e7472616374206973206e6f7420696e2074686520706572666f726d616e60008201527f6365207374616765000000000000000000000000000000000000000000000000602082015250565b60006112c46028836110ba565b91506112cf82611268565b604082019050919050565b600060208201905081810360008301526112f3816112b7565b9050919050565b7f436f6e747261637420686173206e6f742072656163686564207468652065787060008201527f6972792074696d65000000000000000000000000000000000000000000000000602082015250565b60006113566028836110ba565b9150611361826112fa565b604082019050919050565b6000602082019050818103600083015261138581611349565b9050919050565b7f556e61626c6520746f2061636365707420636f6e747261637400000000000000600082015250565b60006113c26019836110ba565b91506113cd8261138c565b602082019050919050565b600060208201905081810360008301526113f1816113b5565b9050919050565b7f4f6e6c79207468652072656769737465726564207061796565206f722070617960008201527f65722063616e2063616c6c2074686973206d6574686f64000000000000000000602082015250565b60006114546037836110ba565b915061145f826113f8565b604082019050919050565b6000602082019050818103600083015261148381611447565b9050919050565b7f436f6e7472616374206d75737420626520696e2074686520706572666f726d6160008201527f6e636520737461676520666f722064697370757465206d656368616e69736d2060208201527f746f20626520617661696c61626c650000000000000000000000000000000000604082015250565b600061150c604f836110ba565b91506115178261148a565b606082019050919050565b6000602082019050818103600083015261153b816114ff565b9050919050565b7f4f6e6c792070617965722063616e2063616c6c2074686973206d6574686f6400600082015250565b6000611578601f836110ba565b915061158382611542565b602082019050919050565b600060208201905081810360008301526115a78161156b565b9050919050565b7f436f6e7472616374206e6f7420616363657074696e67206f6666657200000000600082015250565b60006115e4601c836110ba565b91506115ef826115ae565b602082019050919050565b60006020820190508181036000830152611613816115d7565b9050919050565b7f506c65617365206465706f7369742061206e6f6e2d7a65726f20616d6f756e74600082015250565b60006116506020836110ba565b915061165b8261161a565b602082019050919050565b6000602082019050818103600083015261167f81611643565b9050919050565b7f65787069727954696d65206d7573742062652061206675747572652074696d65600082015250565b60006116bc6020836110ba565b91506116c782611686565b602082019050919050565b600060208201905081810360008301526116eb816116af565b9050919050565b7f43616e6e6f74207769746864726177206f66666572206173207061796565206860008201527f617320616363657074656420796f7572206465706f7369740000000000000000602082015250565b600061174e6038836110ba565b9150611759826116f2565b604082019050919050565b6000602082019050818103600083015261177d81611741565b9050919050565b7f50726f706f736564206578706972792074696d65206d7573742062652061667460008201527f65722063757272656e74206578706972792074696d6500000000000000000000602082015250565b60006117e06036836110ba565b91506117eb82611784565b604082019050919050565b6000602082019050818103600083015261180f816117d3565b9050919050565b7f4578706972792074696d65206e6f7420657874656e6465643a2050617965722060008201527f616e642070617965652070726f706f73656420657874656e646564206578706960208201527f7279206d757374206d617463682028596f75206d617920636865636b2070617960408201527f656550726f706f736564457874656e646564457870697279206f72207061796560608201527f7250726f706f736564457874656e646564457870697279290000000000000000608082015250565b60006118e46098836110ba565b91506118ef82611816565b60a082019050919050565b60006020820190508181036000830152611913816118d7565b905091905056fe4e6577206578706972792074696d652070726f706f7365643a20506c65617365207761697420666f72206f7468657220706172747920746f2070726f706f7365206578706972792074696d65a2646970667358221220f9ca8b4b69a556e8694fe9b5a6acd7c17be8bd2cf124a051524335addc543d2264736f6c634300080d0033",
  "immutableReferences": {},
  "source": "// SPDX-License-Identifier: UNLICENSED\npragma solidity ^0.8.0;\n\ncontract Escrow {\n\taddress payable public payer;\n\taddress payable public payee;\n\tuint public expiryTime;\n\n\taddress payable public arbitrator;\n\n\tenum State { A_OFFER, A_ACCEPTANCE, A_PERFORMANCE, COMPLETE}\n\tState public currState;\n\n\tuint public payeeProposedExtendedExpiry;\n\tuint public payerProposedExtendedExpiry;\n\n\tmodifier onlyPayer() {\n\t\trequire(msg.sender == payer, \"Only payer can call this method\");\n\t\t_;\n\t}\n\n\tmodifier onlyPayee() {\n\t\trequire(msg.sender == payee, \"Only payee can call this method\");\n\t\t_;\n\t}\n\n\tmodifier onlyPayerOrPayee() {\n\t\trequire(msg.sender == payee || msg.sender == payer, \"Only the registered payee or payer can call this method\");\n\t\t_;\n\t}\n\n\tconstructor(address payable _payer, address payable _payee, address payable _arbitrator) {\n\t\tpayer = _payer;\n\t\tpayee = _payee;\n\t\tarbitrator = _arbitrator;\n\t\tcurrState = State.A_OFFER;\n\t}\n\n\tfunction extendExpiry() internal {\n\t\trequire(payeeProposedExtendedExpiry == payerProposedExtendedExpiry, \n\t\t\t\"Expiry time not extended: Payer and payee proposed extended expiry must match (You may check payeeProposedExtendedExpiry or payerProposedExtendedExpiry)\");\n\t\texpiryTime = payerProposedExtendedExpiry;\n\t\tpayeeProposedExtendedExpiry = 0;\n\t\tpayerProposedExtendedExpiry = 0;\n\t}\n\n\t// Function for payer to deposit into the contract\n\tfunction offer(uint _expiryTime) onlyPayer external payable {\n\t\trequire(currState == State.A_OFFER, \"Contract not accepting offer\");\n\t\trequire(msg.value > 0, \"Please deposit a non-zero amount\");\n\t\trequire(_expiryTime > block.timestamp, \"expiryTime must be a future time\");\n\t\t// Payee will now be allowed to accept payer's offer of deposit\n\t\tcurrState = State.A_ACCEPTANCE;\n\t}\n\n\t// Function to allow payer to withdraw offer / alter offer by withdrawing and re-offering\n\tfunction withdrawOffer() onlyPayer external payable {\n\t\trequire(currState != State.A_ACCEPTANCE, \"Cannot withdraw offer as payee has accepted your deposit\");\n\t\tpayer.transfer(address(this).balance);\n\t\t// Contract now able to accept a new offer\n\t\tcurrState = State.A_OFFER;\n\t}\n\n\t// Function for payee to accept deposit and 'lock' the escrow contract\n\tfunction accept() onlyPayee external {\n\t\trequire(currState == State.A_ACCEPTANCE, \"Unable to accept contract\");\n\t\t// Contract is now \"locked\" for performance\n\t\tcurrState = State.A_PERFORMANCE;\n\t}\n\n\t// Function to allow parties to extend expiry time. Both payee and payer must propose matching expiry time\n\t// for expiry time to be actually updated.\n\tfunction proposeExtendExpiry(uint extendedExpiryTime) onlyPayerOrPayee external returns (string memory) {\n\t\trequire(extendedExpiryTime > expiryTime, \"Proposed expiry time must be after current expiry time\");\n\t\tif (msg.sender == payer) {\n\t\t\tpayerProposedExtendedExpiry = extendedExpiryTime;\n\t\t} else {\n\t\t\tpayeeProposedExtendedExpiry = extendedExpiryTime;\n\t\t}\n\t\tif (payerProposedExtendedExpiry == 0 || payeeProposedExtendedExpiry == 0) {\n\t\t\t// Other party has not proposed extended expiry time\n\t\t\treturn \"New expiry time proposed: Please wait for other party to propose expiry time\";\n\t\t}\n\t\textendExpiry();\n\t\treturn \"Expiry time updated\";\n\t}\n\n\t// Function for payer to confirm performance, releasing balance to payee\n\tfunction confirmPerformance() onlyPayer external {\n\t\trequire(currState == State.A_PERFORMANCE, \"Contract is not in the performance stage\");\n\t\tpayee.transfer(address(this).balance);\n\t\tcurrState = State.COMPLETE;\n\t}\n\n\t// Function for payee to withdraw the balance if payer does not confirm performance before timer expires\n\tfunction expiredWithdraw() onlyPayee external {\n\t\trequire(currState == State.A_PERFORMANCE, \"Contract is not in the performance stage\");\n\t\trequire(block.timestamp >= expiryTime, \"Contract has not reached the expiry time\");\n\t\tpayee.transfer(address(this).balance);\n\t\tcurrState = State.COMPLETE;\n\t}\n\n\t// Function for either payer or payee to trigger dispute mechanism. Balance held will be transferred to chosen arbitrator.\n\tfunction triggerDispute() onlyPayerOrPayee external {\n\t\trequire(currState == State.A_PERFORMANCE, \"Contract must be in the performance stage for dispute mechanism to be available\");\n\t\tarbitrator.transfer(address(this).balance);\n\t\tcurrState = State.COMPLETE;\n\t}\n}",
  "sourcePath": "/home/dominiclet/projects/Escrow/smart-contract/contracts/Escrow.sol",
  "compiler": {
    "name": "solc",
    "version": "0.8.13+commit.abaa5c0e.Emscripten.clang"
  },
  "schemaVersion": "3.4.6",
  "updatedAt": "2022-03-22T10:28:19.400Z",
  "devdoc": {
    "kind": "dev",
    "methods": {},
    "version": 1
  },
  "userdoc": {
    "kind": "user",
    "methods": {},
    "version": 1
  }
}