{
  "contractName": "Escrow",
  "abi": [
    {
      "inputs": [
        {
          "internalType": "address",
          "name": "_payer",
          "type": "address"
        },
        {
          "internalType": "address payable",
          "name": "_payee",
          "type": "address"
        }
      ],
      "stateMutability": "nonpayable",
      "type": "constructor"
    },
    {
      "inputs": [],
      "name": "currState",
      "outputs": [
        {
          "internalType": "enum Escrow.State",
          "name": "",
          "type": "uint8"
        }
      ],
      "stateMutability": "view",
      "type": "function",
      "constant": true
    },
    {
      "inputs": [],
      "name": "payee",
      "outputs": [
        {
          "internalType": "address payable",
          "name": "",
          "type": "address"
        }
      ],
      "stateMutability": "view",
      "type": "function",
      "constant": true
    },
    {
      "inputs": [],
      "name": "payer",
      "outputs": [
        {
          "internalType": "address",
          "name": "",
          "type": "address"
        }
      ],
      "stateMutability": "view",
      "type": "function",
      "constant": true
    },
    {
      "inputs": [],
      "name": "offer",
      "outputs": [],
      "stateMutability": "payable",
      "type": "function",
      "payable": true
    },
    {
      "inputs": [],
      "name": "accept",
      "outputs": [],
      "stateMutability": "nonpayable",
      "type": "function"
    },
    {
      "inputs": [],
      "name": "confirmPerformance",
      "outputs": [],
      "stateMutability": "nonpayable",
      "type": "function"
    }
  ],
  "bytecode": "0x60806040523480156200001157600080fd5b5060405162000bf238038062000bf283398181016040528101906200003791906200019d565b816000806101000a81548173ffffffffffffffffffffffffffffffffffffffff021916908373ffffffffffffffffffffffffffffffffffffffff16021790555080600160006101000a81548173ffffffffffffffffffffffffffffffffffffffff021916908373ffffffffffffffffffffffffffffffffffffffff1602179055506000600160146101000a81548160ff02191690836003811115620000e157620000e0620001e4565b5b0217905550505062000213565b600080fd5b600073ffffffffffffffffffffffffffffffffffffffff82169050919050565b60006200012082620000f3565b9050919050565b620001328162000113565b81146200013e57600080fd5b50565b600081519050620001528162000127565b92915050565b60006200016582620000f3565b9050919050565b620001778162000158565b81146200018357600080fd5b50565b60008151905062000197816200016c565b92915050565b60008060408385031215620001b757620001b6620000ee565b5b6000620001c78582860162000141565b9250506020620001da8582860162000186565b9150509250929050565b7f4e487b7100000000000000000000000000000000000000000000000000000000600052602160045260246000fd5b6109cf80620002236000396000f3fe6080604052600436106100555760003560e01c8063123119cd1461005a5780632852b71c14610085578063a35c2bff1461009c578063ae90b213146100b3578063afe01043146100de578063c028df0614610109575b600080fd5b34801561006657600080fd5b5061006f610113565b60405161007c91906105f1565b60405180910390f35b34801561009157600080fd5b5061009a610137565b005b3480156100a857600080fd5b506100b161026a565b005b3480156100bf57600080fd5b506100c8610404565b6040516100d5919061062d565b60405180910390f35b3480156100ea57600080fd5b506100f361042a565b60405161010091906106bf565b60405180910390f35b61011161043d565b005b60008054906101000a900473ffffffffffffffffffffffffffffffffffffffff1681565b600160009054906101000a900473ffffffffffffffffffffffffffffffffffffffff1673ffffffffffffffffffffffffffffffffffffffff163373ffffffffffffffffffffffffffffffffffffffff16146101c7576040517f08c379a00000000000000000000000000000000000000000000000000000000081526004016101be90610737565b60405180910390fd5b600160038111156101db576101da610648565b5b600160149054906101000a900460ff1660038111156101fd576101fc610648565b5b1461023d576040517f08c379a0000000000000000000000000000000000000000000000000000000008152600401610234906107a3565b60405180910390fd5b6002600160146101000a81548160ff0219169083600381111561026357610262610648565b5b0217905550565b60008054906101000a900473ffffffffffffffffffffffffffffffffffffffff1673ffffffffffffffffffffffffffffffffffffffff163373ffffffffffffffffffffffffffffffffffffffff16146102f8576040517f08c379a00000000000000000000000000000000000000000000000000000000081526004016102ef9061080f565b60405180910390fd5b6002600381111561030c5761030b610648565b5b600160149054906101000a900460ff16600381111561032e5761032d610648565b5b1461036e576040517f08c379a0000000000000000000000000000000000000000000000000000000008152600401610365906108a1565b60405180910390fd5b600160009054906101000a900473ffffffffffffffffffffffffffffffffffffffff1673ffffffffffffffffffffffffffffffffffffffff166108fc479081150290604051600060405180830381858888f193505050501580156103d6573d6000803e3d6000fd5b506003600160146101000a81548160ff021916908360038111156103fd576103fc610648565b5b0217905550565b600160009054906101000a900473ffffffffffffffffffffffffffffffffffffffff1681565b600160149054906101000a900460ff1681565b60008054906101000a900473ffffffffffffffffffffffffffffffffffffffff1673ffffffffffffffffffffffffffffffffffffffff163373ffffffffffffffffffffffffffffffffffffffff16146104cb576040517f08c379a00000000000000000000000000000000000000000000000000000000081526004016104c29061080f565b60405180910390fd5b600060038111156104df576104de610648565b5b600160149054906101000a900460ff16600381111561050157610500610648565b5b14610541576040517f08c379a00000000000000000000000000000000000000000000000000000000081526004016105389061090d565b60405180910390fd5b60003411610584576040517f08c379a000000000000000000000000000000000000000000000000000000000815260040161057b90610979565b60405180910390fd5b60018060146101000a81548160ff021916908360038111156105a9576105a8610648565b5b0217905550565b600073ffffffffffffffffffffffffffffffffffffffff82169050919050565b60006105db826105b0565b9050919050565b6105eb816105d0565b82525050565b600060208201905061060660008301846105e2565b92915050565b6000610617826105b0565b9050919050565b6106278161060c565b82525050565b6000602082019050610642600083018461061e565b92915050565b7f4e487b7100000000000000000000000000000000000000000000000000000000600052602160045260246000fd5b6004811061068857610687610648565b5b50565b600081905061069982610677565b919050565b60006106a98261068b565b9050919050565b6106b98161069e565b82525050565b60006020820190506106d460008301846106b0565b92915050565b600082825260208201905092915050565b7f4f6e6c792070617965652063616e2063616c6c2074686973206d6574686f6400600082015250565b6000610721601f836106da565b915061072c826106eb565b602082019050919050565b6000602082019050818103600083015261075081610714565b9050919050565b7f556e61626c6520746f2061636365707420636f6e747261637400000000000000600082015250565b600061078d6019836106da565b915061079882610757565b602082019050919050565b600060208201905081810360008301526107bc81610780565b9050919050565b7f4f6e6c792070617965722063616e2063616c6c2074686973206d6574686f6400600082015250565b60006107f9601f836106da565b9150610804826107c3565b602082019050919050565b60006020820190508181036000830152610828816107ec565b9050919050565b7f436f6e7472616374206973206e6f7420696e2074686520706572666f726d616e60008201527f6365207374616765000000000000000000000000000000000000000000000000602082015250565b600061088b6028836106da565b91506108968261082f565b604082019050919050565b600060208201905081810360008301526108ba8161087e565b9050919050565b7f4f6666657220616c7265616479206d6164650000000000000000000000000000600082015250565b60006108f76012836106da565b9150610902826108c1565b602082019050919050565b60006020820190508181036000830152610926816108ea565b9050919050565b7f416d6f756e742063616e6e6f74206265207a65726f0000000000000000000000600082015250565b60006109636015836106da565b915061096e8261092d565b602082019050919050565b6000602082019050818103600083015261099281610956565b905091905056fea2646970667358221220f26176c78333d9eb8b1167fe0d6e63713db39c92424e578df5d950d52e135a2564736f6c634300080c0033",
  "immutableReferences": {},
  "source": "// SPDX-License-Identifier: UNLICENSED\npragma solidity ^0.8.0;\n\ncontract Escrow {\n\taddress public payer;\n\taddress payable public payee;\n\n\tenum State { A_OFFER, A_ACCEPTANCE, A_PERFORMANCE, COMPLETE}\n\tState public currState;\n\n\tmodifier onlyPayer() {\n\t\trequire(msg.sender == payer, \"Only payer can call this method\");\n\t\t_;\n\t}\n\n\tmodifier onlyPayee() {\n\t\trequire(msg.sender == payee, \"Only payee can call this method\");\n\t\t_;\n\t}\n\n\tconstructor(address _payer, address payable _payee) {\n\t\tpayer = _payer;\n\t\tpayee = _payee;\n\t\tcurrState = State.A_OFFER;\n\t}\n\n\tfunction offer() onlyPayer external payable {\n\t\trequire(currState == State.A_OFFER, \"Offer already made\");\n\t\trequire(msg.value > 0, \"Amount cannot be zero\");\n\t\tcurrState = State.A_ACCEPTANCE;\n\t}\n\n\tfunction accept() onlyPayee external {\n\t\trequire(currState == State.A_ACCEPTANCE, \"Unable to accept contract\");\n\t\t// Maybe require payee to pay some acceptance fee\n\t\tcurrState = State.A_PERFORMANCE;\n\t\t// Contract is now \"locked\" for performance\n\t}\n\n\tfunction confirmPerformance() onlyPayer external {\n\t\trequire(currState == State.A_PERFORMANCE, \"Contract is not in the performance stage\");\n\t\tpayee.transfer(address(this).balance);\n\t\tcurrState = State.COMPLETE;\n\t}\n}",
  "sourcePath": "/home/dominic/proj/smart_contract_test/contracts/Escrow.sol",
  "compiler": {
    "name": "solc",
    "version": "0.8.12+commit.f00d7308.Emscripten.clang"
  },
  "schemaVersion": "3.4.5",
  "updatedAt": "2022-03-06T12:06:22.480Z",
  "networkType": "ethereum",
  "devdoc": {
    "kind": "dev",
    "methods": {},
    "version": 1
  },
  "userdoc": {
    "kind": "user",
    "methods": {},
    "version": 1
  }
}